:4000000000100020110000008D0300008D03000080B500AF00F0BEF980B500AF124B124A12688021C9020A431A60182000F042FD0D4B0D4A12680D490A401A600C4B0D4A32
:400040001A600D4B10221A600C4B802212061A60054B00221A600A4B0A4A1A600A4B00221A60BD4680BDC04600010B40FFFFFBFF04010B40060000800C02024008010B4073
:40008000000002400E0000800C020B4080B582B000AF72B6FB1D00221A7023E0FB1D1A78131C5B009B185B00334A9B183B603B681A78597809020A43997809040A43DB78E9
:4000C0001B061343191C3B681A795B791B0213439BB2081C191C00F0DBF9FB1D1A78FB1D01321A70FB1D1B78012BD7D9234B244A1A60244B992212041A60234B9922120418
:400100001A60224B992212041A60214A204B1B78DBB202210B43DBB213701E4A1D4B1B78DBB23C218B43DBB214210B43DBB21370174A174B1B78DBB216210B43DBB2137063
:40014000154B04221A60154BC02252001A60144B40221A60134BC02252031A60124B03221A60124B124A1A60FFF756FF00F0A0F9BD4602B080BDC046C01300000C0001400C
:40018000EEEE000000500F4010500F4030500F4000700F4001700F40000004400800044000010440080104400003044008030440A40D000010B5064C2378002B07D1054B59
:4001C000002B02D0044800E000BF0123237010BDE000002000000000BC13000008B5084B002B03D00748084900E000BF07480368002B00D108BD064B002BFBD09847F9E7F6
:4002000000000000BC130000E4000020C80000200000000080B582B000AFFB1D01221A70012000F0BBFB012000F0DEFB00F05CF962B6FB1D1B78181C00F01EF8031E15D12E
:4002400000F060F8031E11D1FB1D1A78FB1D01321A70FB1D1B78032B02D9FB1D00221A70012000F09BFB012000F0BEFBFA235B00181C00F0C1FDDCE780B584B000AF021C78
:40028000FB1D1A70FF23FB600823FB1801221A700823FB18FA1D12785A700823FB1817229A700823FB180820191C0322002300F0ADF9C04600F0E2FA021C02231340F9D060
:4002C00000F0DCFA021C80239B0013400DD100F0CBFA031E032B0ED1012000F05FFB002000F082FB0023FB6005E0002000F056FB012000F079FB00F0E3FAFB68181CBD4620
:4003000004B080BD80B582B000AFFF237B603B1C0820191C0322002300F006FAC04600F0ADFA021C01231340F9D000F0A7FA021C80239B00134019D100F08CFA031E032BE3
:400340001CD13B1C1B78012B18D13B1C9B78172B14D13B1C5B78002B10D1012000F01EFB002000F041FB00237B6007E0002000F015FB012000F038FBFF237B6000F0A0FA84
:400380007B68181CBD4602B080BDC04680B500AFFEE7C04680B586B000AF224B7B61224B3B61204B7B6135E03B691B68FB603B695B68BB603B699B683B6000237B600CE067
:4003C000FB681A68BB681A60BB680433BB60FB680433FB607B6804337B607A683B689A42EED13B69DB683B6000237B6008E0BB6800221A60BB680433BB607B6804337B606B
:400400007A683B689A42F2D13B6910333B617B69013B7B617B69002BC6D100F0A1FFFFF7F9FEFEE7010000002014000080B582B000AF00237B600FE07B68032B04D8104B91
:400440007A689200D35800E00E4B0F4A796889008B507B6801337B607B682F2BECD9FFF715FE0A4B00221A608023DB058022D205126801210A431A60BD4602B080BDC046C1
:40048000000000008D03000000000020C000002080B582B000AF786039607A683B68101C00211A1C00F082FFBD4602B080BDC04680B500AFBD4680BD80B500AF00F032F892
:4004C000BD4680BD80B500AF064B064A1268802109060A431A6000F019F800F01FF8BD4680BDC0460000074080B500AF064B1B78002B04D1FFF7E0FF034B01221A70FFF723
:40050000E1FFBD4680BDC046FC00002080B500AF0B2000F03FFCBD4680BDC04680B500AFBD4680BD80B500AF234B234A12680C210A431A60214B00221A60214B214A1A604F
:40054000214B224A1A60224B00221A60214B00221A60214B1D4A1A60204B00221A600B2000F02CFC0B20032100F0C0FB1C4B0B20191C00F095FB1B4B00221A601A4B0022B7
:400580001A601A4B00221A60194B1422FF321A60184B00221A60184B00221A60174B10221A70174B00221A80164B00221A60164B00221A60BD4680BD700007400000074009
:4005C0006000074077080080000307400701008004030740100307400002074004020740690E0000C80E0740880E0740480F0740080F0740C80F0740880F074004010020B7
:4006000014010020100100201801002080B586B000AFF860B9607A603B6004237B61BB68002B20D0324B1B78DBB2102B0CD10B2000F0C4FB2F4B1B680122134001D00823DC
:4006400000E000237B610EE0294B1B78DBB2602B09D1294B1B889BB2082293439AB2264B1A8000237B617B69002B38D1204B28221A70224B00221A60214B00221A60214B26
:400680007A681A60204BBA681A603B68DAB21F4B1A70FB685B00FF221340FB60164B1B889BB2022293439AB2134B1A80184B194A1A60194B40221A60184B40221A603B6836
:4006C0000122134005D000F013F9154BFA681A6005E0134BFA681A60124B02221A600B2000F058FB7B69181CBD4606B080BDC0460401002064000740140100202001002095
:4007000018010020280100200C0100201C010020000F074017030000800F0740880F0740400207406800074080B586B000AFF860B9607A603B6004237B61BB68002B20D030
:40074000374B1B78DBB2102B0CD10B2000F036FB344B1B680122134001D0082300E000237B610EE02E4B1B78DBB2602B09D12E4B1B889BB2082293439AB22B4B1A8000234C
:400780007B617B69002B43D1254B29221A70274B00221A60264B7A681A60264BBA681A603B68DAB2244B1A70FB685B00FF22134001221343FB601C4B1B889BB2012293438F
:4007C0009AB2194B1A801D4B1D4A1A60184B1B68072B03D81B4B04221A6009E01A4B1A4A1268802149000A431A60164B08221A603B680122134005D000F07AF8134BFA687B
:400800001A6005E0114BFA681A60114B02221A600B2000F0BFFA7B69181CBD4606B080BD0401002064000740140100201001002024010020080100201C010020000F07400E
:4008400017030000C80F074060000740400207406800074080B500AF024B1B68181CBD4680BDC0461001002080B500AF024B1B68181CBD4680BDC0461801002080B582B034
:4008800000AF0B2000F09AFA0B4B1B889BB27B600A4B1B78DBB220221340DBB2002B03D07B68042213437B600B2000F073FA7B68181CBD4602B080BD1401002004010020FF
:4008C00080B582B000AF0B2000F078FA074B1B889BB27B60054B00221A800B2000F05AFA7B68181CBD4602B080BDC0461401002080B582B000AF254B1B687B60C04600F09F
:4009000099F8031EFBD0002000F0A2F8204B204A12680F218A431A601E4B1E4A1268520052081A607B682022134010D0002000F08FF80A2000F084FA012000F089F8C0463A
:4009400000F0AAF8031EFBD00A2000F079FA002000F07EF80A2000F073FA0F4B01221A600C4B0C4A1268802109060A431A60084B074A12680F218A430E210A431A60012098
:4009800000F066F8BD4602B080BDC046640007400C000140000007406800074080B584B000AF021CFB1D1A700E4B1B68DAB20F23FB1840218A431A70FB1D1B789B01DBB2F2
:4009C00040221340D9B20F23FB180F22BA1812780A431A70034B0F22BA1812781A60BD4604B080BD0001044080B584B000AF021CFB1D1A700E4B1B68DAB20F23FB180421D6
:400A00008A431A70FB1D1B789B00DBB204221340D9B20F23FB180F22BA1812780A431A70034B0F22BA1812781A60BD4604B080BD0000044080B500AF044B1B680222134025
:400A40005B08DBB2181CBD4680BDC0460403044080B584B000AF021CFB1D1A700D4B1B68DAB20F23FB1801218A431A70FB1D1B7801221340D9B20F23FB180F22BA18127846
:400A80000A431A70034B0F22BA1812781A60BD4604B080BD0003044080B500AF044B1B68DBB201221340DBB2181CBD4680BDC0460403044090B585B000AF78600C23FC1880
:400AC00000F044FC031C23707B68022B00D8B4E07B68302B00D9B0E05E4B1B78DBB21A1E7B689A420AD35C4A0F23FB1812781A705A4A0E23FB1812781A703FE0584B1B7804
:400B0000DBB21A1E7B689A420AD3564A0F23FB1812781A70544A0E23FB1812781A702DE0524B1B78DBB21A1E7B689A420AD3504A0F23FB1812781A704E4A0E23FB1812786E
:400B40001A701BE04C4B1B78DBB21A1E7B689A420AD34A4A0F23FB1812781A70484A0E23FB1812781A7009E0464A0F23FB1812781A70454A0E23FB1812781A707B68DA1EFA
:400B80000B23FB1841498A5C1A700B23FB181B782F2B0DD97B682A2B0AD93D4B19221A60052000F0C9FB0D23FB1819221A7007E0374B1B68DAB20D23FB183F210A401A70BE
:400BC0000B23FA180D23FB1812781B789A4208D22F4B7A68033A2D498A5C1A60052000F0ABFB7B68284A9A180A23FB1812781A70284B0A22BA1812781A60274B0F22BA1830
:400C000012781A60254B0E22BA1812781A60052000F016F90B23FA180D23FB1812781B789A4209D91A4B7A68033A18498A5C1A60052000F081FB03E002E0002000F0D2F843
:400C40000C23FB181B78181C00F084FBBD4605B090BDC046C0F1FF0FC1F1FF0FC2F1FF0FC3F1FF0FC4F1FF0FC5F1FF0FC6F1FF0FC7F1FF0FC8F1FF0FC9F1FF0FCAF1FF0F85
:400C8000CBF1FF0FCCF1FF0FCDF1FF0FCC1300002CFF0B4028FF0B401CFF0B4020FF0B4080B584B000AF021C3960FB1D1A7080239B05FB60FB1D1B781F2B02D9002000F04D
:400CC00091F8FB1D1B7810339B00FA68D3181B68BB60FB1D1B7810339B00FA68D3183A681A60BB68181CBD4604B080BD90B587B000AF021CFB1D1A70BB1D0A1C1A70BB1D6F
:400D00001B78032B02D9002000F06CF8FB1D1B781F2B02D9002000F065F8FB1D1B7803221340DB0006337B611323FC1800F00EFB031C2370FB1D1B789B08DBB29B00144A8A
:400D4000944663441B68FB607B6903229A40131CDA43FB681340FB60BB1D1A787B699A40131CFA681343FB60FB1D1B789B08DBB29B00074A94466344FA681A601323FB18FD
:400D80001B78181C00F0E6FABD4607B090BDC04600E400E080B582B000AF021CFB1D1A70054BFA1D12781F210A40012191400A1C1A60BD4602B080BD00E100E080B582B0CD
:400DC00000AF021CFB1D1A70054BFA1D12781F210A40012191400A1C1A60BD4602B080BD80E100E080B582B000AF021CFB1D1A7001BEBD4602B080BD80B582B000AF7860CE
:400E000009E00C4B1B68181C00F096FA7B680A4A944663447B607A6880231B029A42F0D8064B1B687A685343181C00F085FABD4602B080BDD80000200080FFFFD00000201B
:400E400080B582B000AF021CBB1D1A80BB1D1B88044A12785343181C00F06EFABD4602B080BDC046D400002080B582B000AF00233B60BE4B1B68002B02D0BC4B1B689847A5
:400E8000BB4B1B680122134002D0BA4B00221A60B94B1B78DBB220221340DBB2002B38D0B64B1A6880235B0013400AD0B44B1B889BB2C022920013439AB2B14B1A800123DA
:400EC0003B60AE4B1B68012213400AD0AC4B1B889BB29022920013439AB2A94B1A8001233B603B68002B14D0A34B1B78DBB201221340DBB2002B01D0012300E00223A04A9F
:400F0000128892B213439AB29D4B1A809A4B00221A70994B1B78DBB220221340DBB2002B00D1A2E1954B1B681022134018D0954B10221A60904B1B78DBB201221340DBB21F
:400F4000002B01D0012300E002238D4A128892B213439AB28A4B1A80874B10221A70BAE1854B1B78DBB208221340DBB2002B29D0824B1B68022213400ED0824B02221A602F
:400F80007F4B1B889BB28822920013439AB27C4B1A8001233B6015E0774B1B78DBB201221340DBB2002B03D0734B25221A7009E0714B24221A70744B1B68002B02D0734BA0
:400FC00010221A606C4B1B78DBB204221340DBB2002B00D111E1684B1B78DBB201221340DBB2002B5BD06A4B1B680822134033D0684B1A68684B1B680F211940674B1B686D
:40100000CB18D31A7B607B68082B02D908237B600CE07B68002B09D1614B614A126861490A401A6008237B6001233B6010E05E4B1A685A4B1B68D2185C4B1B68DBB21370CF
:40104000564B1B685A1C554B1A607B68013B7B607B68002BEBD11EE04D4B1B680422134019D0514B1A684D4B1B68D2184F4B1B68DBB21370494B1B685A1C484B1A60474B01
:401080001A68444B1B689A4203D2494B04221A6001E001233B60474B474A1A60ADE0374B1B680222134032D0364B02221A60434B1B680F221A40414B196880231B020B409C
:4010C00001D0012300E00023D2183D4B1B689A1A3B4B1A603A4B1A683A4B1A60284B1B889BB28422920013439AB2254B1A80364B354A1268802149020A431A60324B324ADC
:40110000126832490A401A6001233B6075E0304B1B681022134065D015E0294B1A681A4B1B689A420ED22B4A2B4B1968244B1B68CB181B78DBB21360214B1B685A1C204BF7
:401140001A6000E005E01D4B1B680F221340082BE3D11B4B1A680C4B1B689A4202D10B4B40221A601D4B1E4A1A6046E0000100208C0E0740880E0740040100200C0F074061
:4011800014010020000F074028010020880F0740CC0F074024010020080307401001002060000740FFFEFFFF080100204003074068000740C00F0740ED0F0000080207402C
:4011C000200100201801002004020740FFFFFEFF8C0F0740400207400C010020800F0740F30700003D4B1B684022134005D03C4B1A683C4B1A6001233B603B68002B6AD05F
:40120000394B394A126839490A401A60384B00221A60384B00221A60374B1B78DBB202221340DBB2002B15D0344B1B78DBB201221340DBB2002B01D0092300E00A23304AA2
:40124000128892B213439AB22D4B1A802B4B60221A7040E02B4B2C4A126820210A4001D0182200E010221A6035E0244B1B78DBB210221340DBB2002B2DD1244B234A12687D
:40128000520052081A601D4B10221A70164B164A12681F490A401A60134B134A12681D490A401A60124B00221A60124B00221A60194B1A4A1A601A4B1A4A1A601A4B1B4ADD
:4012C0001A601B4B1B4A1A60104B104A1268802109060A431A60BD4602B080BD8C0F0740200100201801002060000740FFFEFFFFC80F0740880F07401C010020040100203B
:4013000014010020680007406400074000000740FF5FFFFFFFFCFFFF800F0740ED0F0000C00F0740F3070000400F0740FF0F0000000F0740170300000230800804D0C046F8
:401340000138FDD1C046C046C0467047EFF3108072B6704780F310887047C046C046C0460E4B70B500251E1C0D4CE41AA410A54204D0AB00F35898470135F8E700F03EF8C5
:40138000084B00251E1C084CE41AA410A54204D0AB00F35898470135F8E770BD08140000081400000814000010140000031C8218934202D019700133FAE770470000000076
:4013C00000300F40000400400F400004030405060708090A0B0C0E0F101112131415161718191B1C1D1E1F2021222325262728292A2B2E2F3031323334350000F8B5C04634
:40140000F8BC08BC9E467047DD0100002D040000F8B5C046F8BC08BC9E467047B501000030140000C800002018000000500000000000000000366E01C05D000018000000A0
:401440000000E02E0000000000000000000000000000000000000000000000000000000000000000000000000000000000000000000000000000000000000000000000005E
:40148000000000000000000000000000000000000000000000000000000000000000000000000000000000000000000000000000000000000000000000000000000000002C
:4014C00000000000000000000000000000000000000000000000000000000000000000000000000000000000000000000000000000000000000000000000000000000000EC
:4015000000000000000000000000000000000000000000000000000000000000000000000000000000000000000000000000000000000000000000000000000000000000AB
:40154000000000000000000000000000000000000000000000000000000000000000000000000000000000000000000000000000000000000000000000000000000000006B
:0200000490303A
:020000007D7D04
:0200000490402A
:200000000000000000000000000000000000000000000000000000000000000000000000E0
:0200000490501A
:0C000000000204C81193110104CE8F10FF
:0200000490600A
:0100000001FE
:00000001FF