:4000000000100020110000004D0300004D03000080B500AF00F09EF980B500AF124B124A12688021C9020A431A60182000F01EFC0D4B0D4A12680D490A401A600C4B0D4AF7
:400040001A600D4B10221A600C4B802212061A60054B00221A600A4B0A4A1A600A4B00221A60BD4680BDC04600010B40FFFFFBFF04010B40060000800C02024008010B4073
:40008000000002400E0000800C020B4080B582B000AF72B6FB1D00221A7023E0FB1D1A78131C5B009B185B00334A9B183B603B681A78597809020A43997809040A43DB78E9
:4000C0001B061343191C3B681A795B791B0213439BB2081C191C00F0BBF9FB1D1A78FB1D01321A70FB1D1B78012BD7D9234B244A1A60244B992212041A60234B9922120438
:400100001A60224B992212041A60214A204B1B78DBB202210B43DBB213701E4A1D4B1B78DBB23C218B43DBB214210B43DBB21370174A174B1B78DBB216210B43DBB2137063
:40014000154B0C221A60154BD82212011A60144B40221A60134BC02252031A60124B03221A60124B124A1A60FFF756FF00F080F9BD4602B080BDC046901100000C0001407D
:40018000EEEE000000500F4010500F4030500F4000700F4001700F40000004400800044000010440080104400003044008030440A40D000010B5064C2378002B07D1054B59
:4001C000002B02D0044800E000BF0123237010BDE0000020000000008C11000008B5084B002B03D00748084900E000BF07480368002B00D108BD064B002BFBD09847F9E728
:40020000000000008C110000E4000020C80000200000000090B583B000AFFB1DFF221A70012000F029F9012000F04CF9012000F06FF9214B181C032100F0B4FA1F4B181C49
:40024000042100F0D5FA00F0A1F962B600F060FA021C1023134023D000F0EAFA031E042B13D1164B1B78012B0FD1144BDB78172B0BD1124B5B781A1C104B9B78FC1D101C26
:40028000191C00F01DF8031C237000F0E5FA00F069FA094BFA1D12785A70FB1DFF221A7000F036FA021C0123134003D000F0CAFA00F038FACAE7C046CC0000200401002088
:4002C00080B584B000AF786039600F23FB1800221A707B68012B05D022D3022B0CD0032B14D027E0002000F0C7F8012000F0EAF8012000F00DF922E0012000F0BDF80020C8
:4003000000F0E0F8012000F003F918E0012000F0B3F8012000F0D6F8002000F0F9F80EE0012000F0A9F8012000F0CCF8012000F0EFF804E00F23FB18FF221A70C0463B686A
:40034000DBB2181CBD4604B080BDC04680B500AFFEE7C04680B586B000AF224B7B61224B3B61204B7B6135E03B691B68FB603B695B68BB603B699B683B6000237B600CE0FB
:40038000FB681A68BB681A60BB680433BB60FB680433FB607B6804337B607A683B689A42EED13B69DB683B6000237B6008E0BB6800221A60BB680433BB607B6804337B60AB
:4003C0007A683B689A42F2D13B6910333B617B69013B7B617B69002BC6D100F0A9FEFFF719FFFEE701000000F011000080B582B000AF00237B600FE07B68032B04D8104BDD
:400400007A689200D35800E00E4B0F4A796889008B507B6801337B607B682F2BECD9FFF735FE0A4B00221A608023DB058022D205126801210A431A60BD4602B080BDC046E1
:40044000000000004D03000000000020C000002080B582B000AF786039607A683B68101C00211A1C00F08AFEBD4602B080BDC04680B500AFBD4680BD80B584B000AF021CD3
:40048000FB1D1A700E4B1B68DAB20F23FB1840218A431A70FB1D1B789B01DBB240221340D9B20F23FB180F22BA1812780A431A70034B0F22BA1812781A60BD4604B080BD2F
:4004C0000001044080B584B000AF021CFB1D1A700E4B1B68DAB20F23FB1804218A431A70FB1D1B789B00DBB204221340D9B20F23FB180F22BA1812780A431A70034B0F22B7
:40050000BA1812781A60BD4604B080BD0000044080B584B000AF021CFB1D1A700E4B1B68DAB20F23FB1808218A431A70FB1D1B78DB00DBB208221340D9B20F23FB180F2217
:40054000BA1812780A431A70034B0F22BA1812781A60BD4604B080BD0000044080B500AF00F05AF8BD4680BD80B500AF064B064A1268802109060A431A6000F019F800F0EE
:400580001FF8BD4680BDC0460000074080B500AF064B1B78002B04D1FFF7E0FF034B01221A70FFF7E1FFBD4680BDC046FC00002080B500AF0B2000F0C9FABD4680BDC046BF
:4005C00080B500AFBD4680BD80B500AF0E4B1A6880235B00134012D00C4B1A688023DB0113400CD1084B084A126809490A401A60054B054A1268802149000A431A60054B0E
:4006000002221A60BD4680BD0000074060000740FFFEFFFF6C00074080B500AF254B254A12680C210A431A60234B00221A60234B234A1A60234B244A1A60244B00221A604F
:40064000234B244A1A60244B1F4A1A60234B00221A600B2000F08EFA0B20032100F022FA1F4B0B20191C00F0F7F91E4B00221A601D4B00221A601D4B4C22FF321A601C4B2F
:4006800000221A601B4B00221A601B4B00221A601A4B10221A701A4B00221A70194B00221A60194B00221A60184B00221A70BD4680BDC0467000074000000740600007406E
:4006C00077080040000307400701008004030740100307401000FE000002074004020740D90B0000C80E0740880E0740480F0740080F0740C80F0740880F0740080100201E
:40070000200100200C010020100100202C01002080B500AF024B1B78DBB2181CBD4680BD2001002080B582B000AF0B2000F022FA0B4B1B78DBB21A1C0F2313407B60084B1B
:400740001B78DBB20D229343DAB2054B1A700B2000F0FCF97B68181CBD4602B080BDC0462001002080B582B000AF0B2000F002FA0B4B1B78DBB21A1CF02313407B60084B21
:400780001B78DBB22F221340DAB2054B1A700B2000F0DCF97B68181CBD4602B080BDC0462001002080B582B000AF786039607B68002B11D00B2000F0DDF9094B7A681A60B8
:4007C000084B3A681A60084B00221A60074B00221A600B2000F0BAF9BD4602B080BDC0461C010020180100200C0100202401002080B582B000AF786039607B68002B0ED08C
:400800000B2000F0B7F9074B7A681A60064B3A681A60064B00221A600B2000F097F9BD4602B080BD28010020140100201001002080B500AF024B1B68181CBD4680BDC0466B
:400840001001002080B500AF024B00221A60BD4680BDC0460C01002080B500AF024B00221A60BD4680BDC0461001002090B585B000AF78600C23FC1800F050FC031C237091
:400880007B68022B00D8B4E07B68302B00D9B0E05E4B1B78DBB21A1E7B689A420AD35C4A0F23FB1812781A705A4A0E23FB1812781A703FE0584B1B78DBB21A1E7B689A42A4
:4008C0000AD3564A0F23FB1812781A70544A0E23FB1812781A702DE0524B1B78DBB21A1E7B689A420AD3504A0F23FB1812781A704E4A0E23FB1812781A701BE04C4B1B7886
:40090000DBB21A1E7B689A420AD34A4A0F23FB1812781A70484A0E23FB1812781A7009E0464A0F23FB1812781A70454A0E23FB1812781A707B68DA1E0B23FB1841498A5C3A
:400940001A700B23FB181B782F2B0DD97B682A2B0AD93D4B19221A60052000F0D5FB0D23FB1819221A7007E0374B1B68DAB20D23FB183F210A401A700B23FA180D23FB1822
:4009800012781B789A4208D22F4B7A68033A2D498A5C1A60052000F0B7FB7B68284A9A180A23FB1812781A70284B0A22BA1812781A60274B0F22BA1812781A60254B0E2245
:4009C000BA1812781A60052000F0F2F80B23FA180D23FB1812781B789A4209D91A4B7A68033A18498A5C1A60052000F08DFB03E002E0002000F0D2F80C23FB181B78181C3A
:400A000000F090FBBD4605B090BDC046C0F1FF0FC1F1FF0FC2F1FF0FC3F1FF0FC4F1FF0FC5F1FF0FC6F1FF0FC7F1FF0FC8F1FF0FC9F1FF0FCAF1FF0FCBF1FF0FCCF1FF0F2F
:400A4000CDF1FF0F9C1100002CFF0B4028FF0B401CFF0B4020FF0B4080B584B000AF021C3960FB1D1A7080239B05FB60FB1D1B781F2B02D9002000F091F8FB1D1B781033DF
:400A80009B00FA68D3181B68BB60FB1D1B7810339B00FA68D3183A681A60BB68181CBD4604B080BD90B587B000AF021CFB1D1A70BB1D0A1C1A70BB1D1B78032B02D900206C
:400AC00000F06CF8FB1D1B781F2B02D9002000F065F8FB1D1B7803221340DB0006337B611323FC1800F01AFB031C2370FB1D1B789B08DBB29B00144A944663441B68FB601E
:400B00007B6903229A40131CDA43FB681340FB60BB1D1A787B699A40131CFA681343FB60FB1D1B789B08DBB29B00074A94466344FA681A601323FB181B78181C00F0F2FAFB
:400B4000BD4607B090BDC04600E400E080B582B000AF021CFB1D1A70054BFA1D12781F210A40012191400A1C1A60BD4602B080BD00E100E080B582B000AF021CFB1D1A7037
:400B8000054BFA1D12781F210A40012191400A1C1A60BD4602B080BD80E100E080B582B000AF021CFB1D1A7001BEBD4602B080BD80B582B000AF021CBB1D1A80BB1D1B884C
:400BC000044A12785343181C00F09EFABD4602B080BDC046D800002080B582B000AF00233B60DA4B1B68002B02D0D84B1B689847D74B1B680122134002D0D64B00221A6033
:400C0000D54B1B78DBB220221340DBB2002B32D1D24B1A680223FF3313402CD0CE4B1B78DBB201221340DBB2002B10D0CC4B1B78DBB202229343DAB2C94B1A70C84B1B7897
:400C4000DBB209221343DAB2C54B1A7010E0C44B1B78DBB220229343DAB2C14B1A70C04B1B78DBB2702252421343DAB2BC4B1A70B94B00221A70B84B1B78DBB220221340BB
:400C8000DBB2002B00D00DE2B34B1B78DBB210221340DBB2002B00D1D6E1B04B1B680222134056D0AF4B02221A60AF4B1B680F221A40AD4B196880231B020B4001D00123A6
:400CC00000E00023D3187B60A84B1B78DBB21A1E7B689A4208D9A24B1B78DBB204221343DAB29F4B1A700AE0A04B1B78DBB21A1C7B689A1A9E4B1B689A1A9D4B1A609C4B8C
:400D00001A689C4B1A609C4B00221A60974B00221A709A4B994A1268802149020A431A60964B964A126896490A401A608C4B1B78DBB202229343DAB2894B1A70884B1B78AB
:400D4000DBB201221343DAB2854B1A70824B10221A70824B1B680822134048D0814B08221A60884B1A6880239B01134019D00DE0854B1A68854B1B68D218854B1B68DBB27D
:400D80001370824B1B685A1C804B1A60814B1B680F221340ECD17B4B7A4A12687E490A401A607E4B1B682022134007D06C4B1B78DBB240221343DAB2694B1A70784B002290
:400DC0001A60764B774A1A60654B1B78DBB220229343DAB2624B1A70614B1B78DBB210221343DAB25E4B1A705B4B10221A705B4B1B68402213404DD06B4B01221A606B4B59
:400E00001B681022134012D05B4B10221A60594B1A68574B1A60524B1B78DBB202221343DAB24F4B1A704C4B12221A702CE0604B1A68564B1B68D31A7B607B68072B03D8E3
:400E4000574B04221A6014E07B68082B07D14D4B4C4A1268A02109020A431A6009E0494B484A1268802189010A431A604C4B08221A603B4B1B78DBB220221343DAB2384B10
:400E80001A70354B11221A70364B4A4A1A604A4B01221A60494B1B680822134036D0444B1A683A4B1B68D31A083B7B607B68082B04D908237B6000233B6001E001233B6095
:400EC00010E0314B1A68314B1B68D218304B1B68DBB213702D4B1B685A1C2C4B1A607B68013B7B607B68002BEBD13B68002B09D0244B244A1268802109020A431A60284B03
:400F000000221A60254B08221A6066E02B4B1B680422134061D01E4B1B687B601B4B1A68234B1B689A424BD2234B01221A60164B1A68164B1B68D3187A68D2B21A70134B74
:400F40001B685A1C114B1A6044E0C046000100208C0E0740880E0740080100204C0F074020010020400F0740080207402C010020240100200C010020880F074004020740BC
:400F8000FFFFFEFF6000074028010020100100204003074008030740FF5FFFFFC00F0740C80F0740ED0F0000800E07406400074014010020FF0F00006C000740CC0F074015
:400FC000FFF702FB394B1B78DBB240221343DAB2364B1A70364B04221A60364B1B68102213405FD026E0344B1A68344B1B689A420ED2334A334B19682F4B1B68CB181B787E
:40100000DBB213602C4B1B685A1C2B4B1A6011E02B4BFF221A602C4B1B78DBB220221340DBB2002B06D1284B1B78DBB20133DAB2254B1A70254B1B680F221340082BD2D1F9
:40104000234B10221A602DE0224B224A1268520052081A60204B10221A70204B1F4A12681F490A401A601D4B1C4A12681D490A401A601D4B00221A601C4B00221A60144B57
:401080001B4A1A600A4B1B4A1A601B4B1B4A1A601B4B1C4A1A600F4B0E4A1268802109060A431A60BD4602B080BDC04620010020C00F07408C0F0740240100201801002040
:4010C000400207401C0100202C01002008020740800F0740000007400801002060000740FF5FFFFFFFFCFFFFC80F0740880F0740ED0F0000F3070000400F0740FF0F0000B4
:40110000000F0740170300000230800804D0C0460138FDD1C046C046C0467047EFF3108072B6704780F310887047C046C046C0460E4B70B500251E1C0D4CE41AA410A542E7
:4011400004D0AB00F35898470135F8E700F03EF8084B00251E1C084CE41AA410A54204D0AB00F35898470135F8E770BDD8110000D8110000D8110000E0110000031C82189C
:40118000934202D019700133FAE770470000000000300F40000400400F400004030405060708090A0B0C0E0F101112131415161718191B1C1D1E1F2021222325262728290E
:4011C0002A2B2E2F3031323334350000F8B5C046F8BC08BC9E467047DD010000ED030000F8B5C046F8BC08BC9E467047B501000000120000C800002018000000500000009C
:401200000000000001FF170000366E01C05D0000180000000000E02E00000000000000000000000000000000000000000000000000000000000000000000000000000000AF
:40124000000000000000000000000000000000000000000000000000000000000000000000000000000000000000000000000000000000000000000000000000000000006E
:40128000000000000000000000000000000000000000000000000000000000000000000000000000000000000000000000000000000000000000000000000000000000002E
:4012C00000000000000000000000000000000000000000000000000000000000000000000000000000000000000000000000000000000000000000000000000000000000EE
:4013000000000000000000000000000000000000000000000000000000000000000000000000000000000000000000000000000000000000000000000000000000000000AD
:0200000490303A
:02000000E56FAA
:0200000490402A
:200000000000000000000000000000000000000000000000000000000000000000000000E0
:0200000490501A
:0C000000000204C81193110104CDF702A6
:0200000490600A
:0100000001FE
:00000001FF